{
  "contractName": "Election",
  "abi": [
    {
      "constant": true,
      "inputs": [],
      "name": "candidatesCount",
      "outputs": [
        {
          "name": "",
          "type": "uint256"
        }
      ],
      "payable": false,
      "stateMutability": "view",
      "type": "function"
    },
    {
      "constant": true,
      "inputs": [
        {
          "name": "",
          "type": "uint256"
        }
      ],
      "name": "candidates",
      "outputs": [
        {
          "name": "id",
          "type": "uint256"
        },
        {
          "name": "name",
          "type": "string"
        },
        {
          "name": "voteCount",
          "type": "uint256"
        }
      ],
      "payable": false,
      "stateMutability": "view",
      "type": "function"
    },
    {
      "constant": true,
      "inputs": [],
      "name": "timeOver",
      "outputs": [
        {
          "name": "",
          "type": "bool"
        }
      ],
      "payable": false,
      "stateMutability": "view",
      "type": "function"
    },
    {
      "constant": true,
      "inputs": [
        {
          "name": "",
          "type": "address"
        }
      ],
      "name": "voters",
      "outputs": [
        {
          "name": "",
          "type": "bool"
        }
      ],
      "payable": false,
      "stateMutability": "view",
      "type": "function"
    },
    {
      "constant": true,
      "inputs": [],
      "name": "commitPhaseEndTime",
      "outputs": [
        {
          "name": "",
          "type": "uint256"
        }
      ],
      "payable": false,
      "stateMutability": "view",
      "type": "function"
    },
    {
      "constant": true,
      "inputs": [],
      "name": "currentTime",
      "outputs": [
        {
          "name": "",
          "type": "uint256"
        }
      ],
      "payable": false,
      "stateMutability": "view",
      "type": "function"
    },
    {
      "inputs": [],
      "payable": false,
      "stateMutability": "nonpayable",
      "type": "constructor"
    },
    {
      "anonymous": false,
      "inputs": [
        {
          "indexed": true,
          "name": "_candidateId",
          "type": "uint256"
        }
      ],
      "name": "votedEvent",
      "type": "event"
    },
    {
      "anonymous": false,
      "inputs": [],
      "name": "timeEvent",
      "type": "event"
    },
    {
      "constant": false,
      "inputs": [
        {
          "name": "_candidateId",
          "type": "uint256"
        }
      ],
      "name": "vote",
      "outputs": [],
      "payable": false,
      "stateMutability": "nonpayable",
      "type": "function"
    },
    {
      "constant": false,
      "inputs": [],
      "name": "nowTime",
      "outputs": [
        {
          "name": "",
          "type": "uint256"
        }
      ],
      "payable": false,
      "stateMutability": "nonpayable",
      "type": "function"
    },
    {
      "constant": false,
      "inputs": [],
      "name": "timeOut",
      "outputs": [
        {
          "name": "",
          "type": "bool"
        }
      ],
      "payable": false,
      "stateMutability": "nonpayable",
      "type": "function"
    }
  ],
  "bytecode": "0x608060405234801561001057600080fd5b5060006201155890506001810242016003819055506100726040805190810160405280601281526020017f4b617373796d6b68616e204e617a65726b65000000000000000000000000000081525061015f640100000000026401000000009004565b6100bf6040805190810160405280601081526020017f5a68656e69736f76612044616d6972610000000000000000000000000000000081525061015f640100000000026401000000009004565b61010c6040805190810160405280600e81526020017f536d6167756c6f7620416c6d617a00000000000000000000000000000000000081525061015f640100000000026401000000009004565b6101596040805190810160405280601081526020017f54757273756e6f7661204b616d696c610000000000000000000000000000000081525061015f640100000000026401000000009004565b50610281565b600260008154809291906001019190505550606060405190810160405280600254815260200182815260200160008152506001600060025481526020019081526020016000206000820151816000015560208201518160010190805190602001906101cb9291906101dc565b506040820151816002015590505050565b828054600181600116156101000203166002900490600052602060002090601f016020900481019282601f1061021d57805160ff191683800117855561024b565b8280016001018555821561024b579182015b8281111561024a57825182559160200191906001019061022f565b5b509050610258919061025c565b5090565b61027e91905b8082111561027a576000816000905550600101610262565b5090565b90565b6105c8806102906000396000f300608060405260043610610099576000357c0100000000000000000000000000000000000000000000000000000000900463ffffffff1680630121b93f1461009e5780632d35a8a2146100cb578063335f1b37146100f65780633477ee2e1461012157806346057b70146101d5578063614d85e114610204578063a3ec138d14610233578063a61935041461028e578063d18e81b3146102b9575b600080fd5b3480156100aa57600080fd5b506100c9600480360381019080803590602001909291905050506102e4565b005b3480156100d757600080fd5b506100e0610415565b6040518082815260200191505060405180910390f35b34801561010257600080fd5b5061010b61041b565b6040518082815260200191505060405180910390f35b34801561012d57600080fd5b5061014c6004803603810190808035906020019092919050505061042c565b6040518084815260200180602001838152602001828103825284818151815260200191508051906020019080838360005b8381101561019857808201518184015260208101905061017d565b50505050905090810190601f1680156101c55780820380516001836020036101000a031916815260200191505b5094505050505060405180910390f35b3480156101e157600080fd5b506101ea6104ee565b604051808215151515815260200191505060405180910390f35b34801561021057600080fd5b50610219610501565b604051808215151515815260200191505060405180910390f35b34801561023f57600080fd5b50610274600480360381019080803573ffffffffffffffffffffffffffffffffffffffff169060200190929190505050610570565b604051808215151515815260200191505060405180910390f35b34801561029a57600080fd5b506102a3610590565b6040518082815260200191505060405180910390f35b3480156102c557600080fd5b506102ce610596565b6040518082815260200191505060405180910390f35b6003544211156102f357600080fd5b6000803373ffffffffffffffffffffffffffffffffffffffff1673ffffffffffffffffffffffffffffffffffffffff16815260200190815260200160002060009054906101000a900460ff1615151561034b57600080fd5b60008111801561035d57506002548111155b151561036857600080fd5b60016000803373ffffffffffffffffffffffffffffffffffffffff1673ffffffffffffffffffffffffffffffffffffffff16815260200190815260200160002060006101000a81548160ff0219169083151502179055506001600082815260200190815260200160002060020160008154809291906001019190505550807ffff3c900d938d21d0990d786e819f29b8d05c1ef587b462b939609625b684b1660405160405180910390a250565b60025481565b600042600581905550600554905090565b6001602052806000526040600020600091509050806000015490806001018054600181600116156101000203166002900480601f0160208091040260200160405190810160405280929190818152602001828054600181600116156101000203166002900480156104de5780601f106104b3576101008083540402835291602001916104de565b820191906000526020600020905b8154815290600101906020018083116104c157829003601f168201915b5050505050908060020154905083565b600460009054906101000a900460ff1681565b600060035442111561053f576001600460006101000a81548160ff021916908315150217905550600460009054906101000a900460ff16905061056d565b6000600460006101000a81548160ff021916908315150217905550600460009054906101000a900460ff1690505b90565b60006020528060005260406000206000915054906101000a900460ff1681565b60035481565b600554815600a165627a7a72305820507e36cd479ccd79799278520680132655e38ca4fd77d04d317e232ca16aef500029",
  "source": "pragma solidity ^0.4.2;\r\n\r\ncontract Election {\r\n\t//model a candidate\r\n\tstruct Candidate{\r\n\t\tuint id;\r\n\t\tstring name;\r\n\t\tuint voteCount;\r\n\t}\r\n\r\n\t//Store accts that have voted\r\n\tmapping(address => bool) public voters;\r\n\t//store candidates\r\n\t//fetch candidates\r\n\tmapping(uint => Candidate) public candidates;\r\n\t//store candidates count \r\n\tuint public candidatesCount;\r\n\tuint public commitPhaseEndTime;\r\n\t//uint public initialTime;\r\n\tbool public timeOver;\r\n\tuint public currentTime;\r\n\t//uint voteFee = 0.5 ether;\r\n\r\n\r\n\t//voted event\r\n\tevent votedEvent (\r\n\t\tuint indexed _candidateId\r\n\r\n\t\t);\r\n\t//event timeUp\r\n\tevent timeEvent ();\r\n\r\n\tconstructor() public {\r\n\t\tuint _commitPhaseLengthInSeconds;\r\n\t\t//if (_commitPhaseLengthInSeconds < 30) {\r\n        //    throw;\r\n        //}\r\n\t\t_commitPhaseLengthInSeconds = 71000;\r\n\t\t//currentTime = now;\r\n\t\tcommitPhaseEndTime = now + _commitPhaseLengthInSeconds * 1 seconds;\r\n\t\taddCandidate(\"Kassymkhan Nazerke\");\r\n\t\taddCandidate(\"Zhenisova Damira\");\r\n\t\taddCandidate(\"Smagulov Almaz\");\r\n\t\taddCandidate(\"Tursunova Kamila\");\r\n\t}\r\n\r\n\tfunction addCandidate (string _name) private {\r\n\t\tcandidatesCount++;\r\n\t\tcandidates[candidatesCount] = Candidate(candidatesCount, _name,0);\r\n\t}\r\n\r\n\tfunction vote (uint _candidateId) public {\r\n\t\t// require that voting time is on\r\n\t\tif (now > commitPhaseEndTime) revert();\r\n\t\t// require that they havent voted before\r\n\t\trequire(!voters[msg.sender]);\r\n\r\n\t\t// require a valid candidate\r\n\t\trequire(_candidateId > 0 && _candidateId <= candidatesCount);\r\n\t\t// require voteFee is paid\r\n\t\t//require(msg.value == voteFee);\r\n\r\n\t\t//record that voter has voted\r\n\t\tvoters[msg.sender] = true;\r\n\r\n\t\t// update candidate vote count\r\n\t\tcandidates[_candidateId].voteCount ++;\r\n\r\n\t\t//trigger voted event\r\n\t\tvotedEvent(_candidateId);\r\n\t}\r\n\r\n    function nowTime () public returns(uint) {\r\n        currentTime = now;\r\n\t\treturn currentTime;\r\n\t}\r\n\r\n\tfunction timeOut () public returns(bool) {\r\n        \r\n\t\tif (now > commitPhaseEndTime) {\r\n\t\t\ttimeOver = true;\r\n\t\t\treturn timeOver;\r\n\t\t}\r\n\t\telse {\r\n\t\t\ttimeOver = false;\r\n\t\t\treturn timeOver;\r\n\t\t}\r\n\t\ttimeEvent();\r\n\t}\r\n\r\n}",
  "sourcePath": "C:\\Users\\darkhan\\Documents\\blockchain\\ethereum development\\voting_dapps\\election1\\contracts\\Election.sol",
  "compiler": {
    "name": "solc",
    "version": "0.4.24+commit.e67f0147.Emscripten.clang"
  },
  "schemaVersion": "2.0.1",
  "updatedAt": "2018-12-04T14:19:56.228Z"
}